{
  "_format": "hh-sol-artifact-1",
  "contractName": "SnapNEarn",
  "sourceName": "contracts/SnapNEarn.sol",
  "abi": [
    {
      "anonymous": false,
      "inputs": [
        {
          "indexed": true,
          "internalType": "uint256",
          "name": "id",
          "type": "uint256"
        },
        {
          "indexed": true,
          "internalType": "address",
          "name": "reporter",
          "type": "address"
        },
        {
          "indexed": false,
          "internalType": "string",
          "name": "imageHash",
          "type": "string"
        },
        {
          "indexed": false,
          "internalType": "string",
          "name": "violationType",
          "type": "string"
        },
        {
          "indexed": false,
          "internalType": "uint256",
          "name": "timestamp",
          "type": "uint256"
        }
      ],
      "name": "ViolationAdded",
      "type": "event"
    },
    {
      "anonymous": false,
      "inputs": [
        {
          "indexed": true,
          "internalType": "uint256",
          "name": "id",
          "type": "uint256"
        },
        {
          "indexed": true,
          "internalType": "address",
          "name": "verifier",
          "type": "address"
        }
      ],
      "name": "ViolationVerified",
      "type": "event"
    },
    {
      "inputs": [
        {
          "internalType": "string",
          "name": "_imageHash",
          "type": "string"
        },
        {
          "internalType": "string",
          "name": "_violationType",
          "type": "string"
        }
      ],
      "name": "addViolation",
      "outputs": [
        {
          "internalType": "uint256",
          "name": "",
          "type": "uint256"
        }
      ],
      "stateMutability": "nonpayable",
      "type": "function"
    },
    {
      "inputs": [],
      "name": "getAllViolations",
      "outputs": [
        {
          "components": [
            {
              "internalType": "uint256",
              "name": "id",
              "type": "uint256"
            },
            {
              "internalType": "string",
              "name": "imageHash",
              "type": "string"
            },
            {
              "internalType": "string",
              "name": "violationType",
              "type": "string"
            },
            {
              "internalType": "uint256",
              "name": "timestamp",
              "type": "uint256"
            },
            {
              "internalType": "address",
              "name": "reporter",
              "type": "address"
            },
            {
              "internalType": "bool",
              "name": "verified",
              "type": "bool"
            }
          ],
          "internalType": "struct SnapNEarn.Violation[]",
          "name": "",
          "type": "tuple[]"
        }
      ],
      "stateMutability": "view",
      "type": "function"
    },
    {
      "inputs": [
        {
          "internalType": "uint256",
          "name": "_count",
          "type": "uint256"
        }
      ],
      "name": "getRecentViolations",
      "outputs": [
        {
          "components": [
            {
              "internalType": "uint256",
              "name": "id",
              "type": "uint256"
            },
            {
              "internalType": "string",
              "name": "imageHash",
              "type": "string"
            },
            {
              "internalType": "string",
              "name": "violationType",
              "type": "string"
            },
            {
              "internalType": "uint256",
              "name": "timestamp",
              "type": "uint256"
            },
            {
              "internalType": "address",
              "name": "reporter",
              "type": "address"
            },
            {
              "internalType": "bool",
              "name": "verified",
              "type": "bool"
            }
          ],
          "internalType": "struct SnapNEarn.Violation[]",
          "name": "",
          "type": "tuple[]"
        }
      ],
      "stateMutability": "view",
      "type": "function"
    },
    {
      "inputs": [],
      "name": "getTotalViolations",
      "outputs": [
        {
          "internalType": "uint256",
          "name": "",
          "type": "uint256"
        }
      ],
      "stateMutability": "view",
      "type": "function"
    },
    {
      "inputs": [
        {
          "internalType": "uint256",
          "name": "_id",
          "type": "uint256"
        }
      ],
      "name": "getViolation",
      "outputs": [
        {
          "components": [
            {
              "internalType": "uint256",
              "name": "id",
              "type": "uint256"
            },
            {
              "internalType": "string",
              "name": "imageHash",
              "type": "string"
            },
            {
              "internalType": "string",
              "name": "violationType",
              "type": "string"
            },
            {
              "internalType": "uint256",
              "name": "timestamp",
              "type": "uint256"
            },
            {
              "internalType": "address",
              "name": "reporter",
              "type": "address"
            },
            {
              "internalType": "bool",
              "name": "verified",
              "type": "bool"
            }
          ],
          "internalType": "struct SnapNEarn.Violation",
          "name": "",
          "type": "tuple"
        }
      ],
      "stateMutability": "view",
      "type": "function"
    },
    {
      "inputs": [
        {
          "internalType": "address",
          "name": "_reporter",
          "type": "address"
        }
      ],
      "name": "getViolationsByReporter",
      "outputs": [
        {
          "internalType": "uint256[]",
          "name": "",
          "type": "uint256[]"
        }
      ],
      "stateMutability": "view",
      "type": "function"
    },
    {
      "inputs": [
        {
          "internalType": "address",
          "name": "",
          "type": "address"
        },
        {
          "internalType": "uint256",
          "name": "",
          "type": "uint256"
        }
      ],
      "name": "reporterViolations",
      "outputs": [
        {
          "internalType": "uint256",
          "name": "",
          "type": "uint256"
        }
      ],
      "stateMutability": "view",
      "type": "function"
    },
    {
      "inputs": [
        {
          "internalType": "uint256",
          "name": "_id",
          "type": "uint256"
        }
      ],
      "name": "verifyViolation",
      "outputs": [],
      "stateMutability": "nonpayable",
      "type": "function"
    },
    {
      "inputs": [],
      "name": "violationCount",
      "outputs": [
        {
          "internalType": "uint256",
          "name": "",
          "type": "uint256"
        }
      ],
      "stateMutability": "view",
      "type": "function"
    },
    {
      "inputs": [
        {
          "internalType": "uint256",
          "name": "",
          "type": "uint256"
        }
      ],
      "name": "violations",
      "outputs": [
        {
          "internalType": "uint256",
          "name": "id",
          "type": "uint256"
        },
        {
          "internalType": "string",
          "name": "imageHash",
          "type": "string"
        },
        {
          "internalType": "string",
          "name": "violationType",
          "type": "string"
        },
        {
          "internalType": "uint256",
          "name": "timestamp",
          "type": "uint256"
        },
        {
          "internalType": "address",
          "name": "reporter",
          "type": "address"
        },
        {
          "internalType": "bool",
          "name": "verified",
          "type": "bool"
        }
      ],
      "stateMutability": "view",
      "type": "function"
    }
  ],
  "bytecode": "0x608060405234801561001057600080fd5b50611282806100206000396000f3fe608060405234801561001057600080fd5b506004361061009e5760003560e01c80634c5765d1116100665780634c5765d11461012457806352388941146101445780635d9cb8b11461014d5780638242dd8b14610155578063b995bb951461016a57600080fd5b806302c945a9146100a357806327d0d0c3146100c9578063295fc43f146100e957806330a4fa7e146101095780633d25bda814610111575b600080fd5b6100b66100b1366004610d4e565b61018f565b6040519081526020015b60405180910390f35b6100dc6100d7366004610d78565b6101c0565b6040516100c09190610e44565b6100fc6100f7366004610ea6565b610417565b6040516100c09190610ec8565b6100dc610483565b6100b661011f366004610faf565b610645565b610137610132366004610d78565b61086d565b6040516100c09190611013565b6100b660015481565b6001546100b6565b610168610163366004610d78565b610a51565b005b61017d610178366004610d78565b610b8a565b6040516100c096959493929190611026565b600260205281600052604060002081815481106101ab57600080fd5b90600052602060002001600091509150505481565b6060600060015483116101d357826101d7565b6001545b905060008167ffffffffffffffff8111156101f4576101f4610f0c565b60405190808252806020026020018201604052801561022d57816020015b61021a610cf1565b8152602001906001900390816102125790505b50905060005b8281101561040f576000816001805461024c9190611091565b6102569190611091565b81548110610266576102666110a4565b90600052602060002090600502016040518060c001604052908160008201548152602001600182018054610299906110ba565b80601f01602080910402602001604051908101604052809291908181526020018280546102c5906110ba565b80156103125780601f106102e757610100808354040283529160200191610312565b820191906000526020600020905b8154815290600101906020018083116102f557829003601f168201915b5050505050815260200160028201805461032b906110ba565b80601f0160208091040260200160405190810160405280929190818152602001828054610357906110ba565b80156103a45780601f10610379576101008083540402835291602001916103a4565b820191906000526020600020905b81548152906001019060200180831161038757829003601f168201915b5050509183525050600382015460208201526004909101546001600160a01b0381166040830152600160a01b900460ff16151560609091015282518390839081106103f1576103f16110a4565b60200260200101819052508080610407906110ee565b915050610233565b509392505050565b6001600160a01b03811660009081526002602090815260409182902080548351818402810184019094528084526060939283018282801561047757602002820191906000526020600020905b815481526020019060010190808311610463575b50505050509050919050565b60606000805480602002602001604051908101604052809291908181526020016000905b8282101561063c57838290600052602060002090600502016040518060c0016040529081600082015481526020016001820180546104e4906110ba565b80601f0160208091040260200160405190810160405280929190818152602001828054610510906110ba565b801561055d5780601f106105325761010080835404028352916020019161055d565b820191906000526020600020905b81548152906001019060200180831161054057829003601f168201915b50505050508152602001600282018054610576906110ba565b80601f01602080910402602001604051908101604052809291908181526020018280546105a2906110ba565b80156105ef5780601f106105c4576101008083540402835291602001916105ef565b820191906000526020600020905b8154815290600101906020018083116105d257829003601f168201915b505050918352505060038201546020808301919091526004909201546001600160a01b0381166040830152600160a01b900460ff16151560609091015290825260019290920191016104a7565b50505050905090565b60008083511161069c5760405162461bcd60e51b815260206004820152601a60248201527f496d61676520686173682063616e6e6f7420626520656d70747900000000000060448201526064015b60405180910390fd5b60008251116106ed5760405162461bcd60e51b815260206004820152601e60248201527f56696f6c6174696f6e20747970652063616e6e6f7420626520656d70747900006044820152606401610693565b600180546040805160c08101825282815260208101878152918101869052426060820152336080820152600060a08201819052805494850181558052805160059094027f290decd9548b62a8d60345a988386fc84ba6bc95484008f6362f93160ef3e563810194855591519293909283927f290decd9548b62a8d60345a988386fc84ba6bc95484008f6362f93160ef3e564019061078b9082611156565b50604082015160028201906107a09082611156565b506060820151600382015560808201516004909101805460a0909301511515600160a01b026001600160a81b03199093166001600160a01b03909216919091179190911790553360009081526002602090815260408220805460018181018355918452918320909101849055805491610818836110ee565b9190505550336001600160a01b0316827ff9adea7fec465d495d60c826fcb75c17d6f1b9ff688912dc652ceca0a24874b187874260405161085b93929190611216565b60405180910390a35090505b92915050565b610875610cf1565b8160015481106108be5760405162461bcd60e51b8152602060048201526014602482015273125b9d985b1a59081d9a5bdb185d1a5bdb88125160621b6044820152606401610693565b600083815481106108d1576108d16110a4565b90600052602060002090600502016040518060c001604052908160008201548152602001600182018054610904906110ba565b80601f0160208091040260200160405190810160405280929190818152602001828054610930906110ba565b801561097d5780601f106109525761010080835404028352916020019161097d565b820191906000526020600020905b81548152906001019060200180831161096057829003601f168201915b50505050508152602001600282018054610996906110ba565b80601f01602080910402602001604051908101604052809291908181526020018280546109c2906110ba565b8015610a0f5780601f106109e457610100808354040283529160200191610a0f565b820191906000526020600020905b8154815290600101906020018083116109f257829003601f168201915b5050509183525050600382015460208201526004909101546001600160a01b0381166040830152600160a01b900460ff16151560609091015291505b50919050565b806001548110610a9a5760405162461bcd60e51b8152602060048201526014602482015273125b9d985b1a59081d9a5bdb185d1a5bdb88125160621b6044820152606401610693565b60008281548110610aad57610aad6110a4565b906000526020600020906005020160040160149054906101000a900460ff1615610b195760405162461bcd60e51b815260206004820152601a60248201527f56696f6c6174696f6e20616c72656164792076657269666965640000000000006044820152606401610693565b600160008381548110610b2e57610b2e6110a4565b6000918252602082206004600590920201018054921515600160a01b0260ff60a01b1990931692909217909155604051339184917fbe1415cd831b6dd7ad827e5b44ba421395f60390765f82609486654b6620da279190a35050565b60008181548110610b9a57600080fd5b60009182526020909120600590910201805460018201805491935090610bbf906110ba565b80601f0160208091040260200160405190810160405280929190818152602001828054610beb906110ba565b8015610c385780601f10610c0d57610100808354040283529160200191610c38565b820191906000526020600020905b815481529060010190602001808311610c1b57829003601f168201915b505050505090806002018054610c4d906110ba565b80601f0160208091040260200160405190810160405280929190818152602001828054610c79906110ba565b8015610cc65780601f10610c9b57610100808354040283529160200191610cc6565b820191906000526020600020905b815481529060010190602001808311610ca957829003601f168201915b5050505060038301546004909301549192916001600160a01b0381169150600160a01b900460ff1686565b6040518060c001604052806000815260200160608152602001606081526020016000815260200160006001600160a01b031681526020016000151581525090565b80356001600160a01b0381168114610d4957600080fd5b919050565b60008060408385031215610d6157600080fd5b610d6a83610d32565b946020939093013593505050565b600060208284031215610d8a57600080fd5b5035919050565b6000815180845260005b81811015610db757602081850181015186830182015201610d9b565b506000602082860101526020601f19601f83011685010191505092915050565b805182526000602082015160c06020850152610df660c0850182610d91565b905060408301518482036040860152610e0f8282610d91565b606085810151908701526080808601516001600160a01b03169087015260a09485015115159490950193909352509192915050565b6000602080830181845280855180835260408601915060408160051b870101925083870160005b82811015610e9957603f19888603018452610e87858351610dd7565b94509285019290850190600101610e6b565b5092979650505050505050565b600060208284031215610eb857600080fd5b610ec182610d32565b9392505050565b6020808252825182820181905260009190848201906040850190845b81811015610f0057835183529284019291840191600101610ee4565b50909695505050505050565b634e487b7160e01b600052604160045260246000fd5b600082601f830112610f3357600080fd5b813567ffffffffffffffff80821115610f4e57610f4e610f0c565b604051601f8301601f19908116603f01168101908282118183101715610f7657610f76610f0c565b81604052838152866020858801011115610f8f57600080fd5b836020870160208301376000602085830101528094505050505092915050565b60008060408385031215610fc257600080fd5b823567ffffffffffffffff80821115610fda57600080fd5b610fe686838701610f22565b93506020850135915080821115610ffc57600080fd5b5061100985828601610f22565b9150509250929050565b602081526000610ec16020830184610dd7565b86815260c06020820152600061103f60c0830188610d91565b82810360408401526110518188610d91565b606084019690965250506001600160a01b03929092166080830152151560a0909101529392505050565b634e487b7160e01b600052601160045260246000fd5b818103818111156108675761086761107b565b634e487b7160e01b600052603260045260246000fd5b600181811c908216806110ce57607f821691505b602082108103610a4b57634e487b7160e01b600052602260045260246000fd5b6000600182016111005761110061107b565b5060010190565b601f82111561115157600081815260208120601f850160051c8101602086101561112e5750805b601f850160051c820191505b8181101561114d5782815560010161113a565b5050505b505050565b815167ffffffffffffffff81111561117057611170610f0c565b6111848161117e84546110ba565b84611107565b602080601f8311600181146111b957600084156111a15750858301515b600019600386901b1c1916600185901b17855561114d565b600085815260208120601f198616915b828110156111e8578886015182559484019460019091019084016111c9565b50858210156112065787850151600019600388901b60f8161c191681555b5050505050600190811b01905550565b6060815260006112296060830186610d91565b828103602084015261123b8186610d91565b91505082604083015294935050505056fea26469706673582212205f9fcdd76213a73557f8ea17ec2082e3dabac313a496f68a96f9a2b33a73843d64736f6c63430008140033",
  "linkReferences": {},
  "deployedLinkReferences": {}
}